{
  "contractName": "ToDoList",
  "abi": [
    {
      "constant": true,
      "inputs": [
        {
          "internalType": "address",
          "name": "",
          "type": "address"
        }
      ],
      "name": "lastIds",
      "outputs": [
        {
          "internalType": "uint256",
          "name": "",
          "type": "uint256"
        }
      ],
      "payable": false,
      "stateMutability": "view",
      "type": "function"
    },
    {
      "constant": true,
      "inputs": [],
      "name": "maxAmountOfTodosForUser",
      "outputs": [
        {
          "internalType": "uint256",
          "name": "",
          "type": "uint256"
        }
      ],
      "payable": false,
      "stateMutability": "view",
      "type": "function"
    },
    {
      "constant": true,
      "inputs": [
        {
          "internalType": "address",
          "name": "",
          "type": "address"
        },
        {
          "internalType": "uint256",
          "name": "",
          "type": "uint256"
        }
      ],
      "name": "todos",
      "outputs": [
        {
          "internalType": "uint256",
          "name": "id",
          "type": "uint256"
        },
        {
          "internalType": "bytes32",
          "name": "content",
          "type": "bytes32"
        },
        {
          "internalType": "uint256",
          "name": "creationDate",
          "type": "uint256"
        },
        {
          "internalType": "address",
          "name": "owner",
          "type": "address"
        },
        {
          "internalType": "bool",
          "name": "isDone",
          "type": "bool"
        }
      ],
      "payable": false,
      "stateMutability": "view",
      "type": "function"
    },
    {
      "constant": false,
      "inputs": [
        {
          "internalType": "bytes32",
          "name": "_content",
          "type": "bytes32"
        }
      ],
      "name": "addTodo",
      "outputs": [],
      "payable": false,
      "stateMutability": "nonpayable",
      "type": "function"
    },
    {
      "constant": false,
      "inputs": [
        {
          "internalType": "uint256",
          "name": "_id",
          "type": "uint256"
        }
      ],
      "name": "markTodoAsDone",
      "outputs": [],
      "payable": false,
      "stateMutability": "nonpayable",
      "type": "function"
    }
  ],
  "bytecode": "0x608060405234801561001057600080fd5b50610619806100206000396000f3fe608060405234801561001057600080fd5b50600436106100575760003560e01c8063428c18891461005c57806361d5fefb1461010a578063a747491814610138578063af73b7d614610190578063da2f6460146101ae575b600080fd5b6100a86004803603604081101561007257600080fd5b81019080803573ffffffffffffffffffffffffffffffffffffffff169060200190929190803590602001909291905050506101dc565b604051808681526020018581526020018481526020018373ffffffffffffffffffffffffffffffffffffffff1673ffffffffffffffffffffffffffffffffffffffff168152602001821515151581526020019550505050505060405180910390f35b6101366004803603602081101561012057600080fd5b810190808035906020019092919050505061024f565b005b61017a6004803603602081101561014e57600080fd5b81019080803573ffffffffffffffffffffffffffffffffffffffff1690602001909291905050506103db565b6040518082815260200191505060405180910390f35b6101986103f3565b6040518082815260200191505060405180910390f35b6101da600480360360208110156101c457600080fd5b81019080803590602001909291905050506103f8565b005b600060205281600052604060002081606481106101f557fe5b60040201600091509150508060000154908060010154908060020154908060030160009054906101000a900473ffffffffffffffffffffffffffffffffffffffff16908060030160149054906101000a900460ff16905085565b6000803373ffffffffffffffffffffffffffffffffffffffff1673ffffffffffffffffffffffffffffffffffffffff168152602001908152602001600020816064811061029857fe5b6004020160030160009054906101000a900473ffffffffffffffffffffffffffffffffffffffff168073ffffffffffffffffffffffffffffffffffffffff163373ffffffffffffffffffffffffffffffffffffffff16146102f857600080fd5b606482111561030657600080fd5b6000803373ffffffffffffffffffffffffffffffffffffffff1673ffffffffffffffffffffffffffffffffffffffff168152602001908152602001600020826064811061034f57fe5b6004020160030160149054906101000a900460ff161561036e57600080fd5b60016000803373ffffffffffffffffffffffffffffffffffffffff1673ffffffffffffffffffffffffffffffffffffffff16815260200190815260200160002083606481106103b957fe5b6004020160030160146101000a81548160ff0219169083151502179055505050565b60016020528060005260406000206000915090505481565b606481565b61040061059a565b6040518060a00160405280600160003373ffffffffffffffffffffffffffffffffffffffff1673ffffffffffffffffffffffffffffffffffffffff1681526020019081526020016000205481526020018381526020014281526020013373ffffffffffffffffffffffffffffffffffffffff168152602001600015158152509050806000803373ffffffffffffffffffffffffffffffffffffffff1673ffffffffffffffffffffffffffffffffffffffff168152602001908152602001600020600160003373ffffffffffffffffffffffffffffffffffffffff1673ffffffffffffffffffffffffffffffffffffffff168152602001908152602001600020546064811061050a57fe5b6004020160008201518160000155602082015181600101556040820151816002015560608201518160030160006101000a81548173ffffffffffffffffffffffffffffffffffffffff021916908373ffffffffffffffffffffffffffffffffffffffff16021790555060808201518160030160146101000a81548160ff0219169083151502179055509050505050565b6040518060a00160405280600081526020016000801916815260200160008152602001600073ffffffffffffffffffffffffffffffffffffffff168152602001600015158152509056fea265627a7a72315820024db1b32d1600828d6a76ea9be96627d9a2fea40bfe53a7b0cce1787944c54464736f6c63430005100032",
  "source": "// SPDX-License-Identifier: GPL-3.0\n\npragma solidity 0.5.16;\n\ncontract ToDoList {\n    uint256 public constant maxAmountOfTodosForUser = 100;\n\n    // owner => array of Todos\n    mapping(address => Todo[maxAmountOfTodosForUser]) public todos;\n    \n    // owner => id of last Todo\n    mapping(address => uint256) public lastIds;\n\n    struct Todo {\n        uint256 id;\n        bytes32 content;\n        uint256 creationDate;\n        address owner;\n        bool isDone;\n    }\n    \n    modifier onlyOwner(address _owner) {\n        require(msg.sender == _owner);\n        _;\n    }\n\n    function addTodo(bytes32 _content) public {\n        Todo memory newTodo = Todo(lastIds[msg.sender], _content, block.timestamp, msg.sender, false);\n        todos[msg.sender][lastIds[msg.sender]] = newTodo;\n    }\n    \n    // A modifier can be added to a function and gets executed first. It handles the access to the function.\n    function markTodoAsDone(uint256 _id) public onlyOwner(todos[msg.sender][_id].owner) {\n        require(_id <= maxAmountOfTodosForUser);\n        require(!todos[msg.sender][_id].isDone);\n        \n        todos[msg.sender][_id].isDone = true;\n    }\n}\n",
  "sourcePath": "/Users/philszalay/Documents/Projects/Ethereum Smart Contracts/contracts/TodoList.sol",
  "compiler": {
    "name": "solc",
    "version": "0.5.16+commit.9c3226ce.Emscripten.clang"
  },
  "schemaVersion": "3.3.4",
  "updatedAt": "2021-03-16T18:05:34.727Z",
  "networkType": "ethereum",
  "devdoc": {
    "methods": {}
  },
  "userdoc": {
    "methods": {}
  }
}